{
  "contractName": "Consumer",
  "abi": [
    {
      "inputs": [
        {
          "internalType": "address",
          "name": "_productManageAddress",
          "type": "address"
        }
      ],
      "stateMutability": "nonpayable",
      "type": "constructor"
    },
    {
      "stateMutability": "payable",
      "type": "fallback",
      "payable": true
    },
    {
      "inputs": [
        {
          "internalType": "address",
          "name": "",
          "type": "address"
        }
      ],
      "name": "isConsumer",
      "outputs": [
        {
          "internalType": "bool",
          "name": "",
          "type": "bool"
        }
      ],
      "stateMutability": "view",
      "type": "function",
      "constant": true
    },
    {
      "stateMutability": "payable",
      "type": "receive",
      "payable": true
    },
    {
      "inputs": [
        {
          "internalType": "address",
          "name": "_addr",
          "type": "address"
        }
      ],
      "name": "registerConsumer",
      "outputs": [],
      "stateMutability": "nonpayable",
      "type": "function"
    },
    {
      "inputs": [
        {
          "internalType": "address",
          "name": "_addr",
          "type": "address"
        }
      ],
      "name": "topUp",
      "outputs": [],
      "stateMutability": "payable",
      "type": "function",
      "payable": true
    },
    {
      "inputs": [
        {
          "internalType": "address",
          "name": "_addr",
          "type": "address"
        }
      ],
      "name": "checkBalance",
      "outputs": [
        {
          "internalType": "uint256",
          "name": "",
          "type": "uint256"
        }
      ],
      "stateMutability": "view",
      "type": "function",
      "constant": true
    },
    {
      "inputs": [
        {
          "internalType": "address",
          "name": "_addr",
          "type": "address"
        },
        {
          "internalType": "uint256",
          "name": "_productId",
          "type": "uint256"
        }
      ],
      "name": "buyFromSeller",
      "outputs": [],
      "stateMutability": "payable",
      "type": "function",
      "payable": true
    }
  ],
  "bytecode": "0x608060405234801561001057600080fd5b5060405162000f8538038062000f85833981810160405281019061003491906100dd565b806000806101000a81548173ffffffffffffffffffffffffffffffffffffffff021916908373ffffffffffffffffffffffffffffffffffffffff1602179055505061010a565b600080fd5b600073ffffffffffffffffffffffffffffffffffffffff82169050919050565b60006100aa8261007f565b9050919050565b6100ba8161009f565b81146100c557600080fd5b50565b6000815190506100d7816100b1565b92915050565b6000602082840312156100f3576100f261007a565b5b6000610101848285016100c8565b91505092915050565b610e6b806200011a6000396000f3fe60806040526004361061004e5760003560e01c80631bbed3211461005757806344b22fdd146100735780635f5152261461009c578063834ff739146100d9578063b528cd991461011657610055565b3661005557005b005b610071600480360381019061006c9190610785565b610132565b005b34801561007f57600080fd5b5061009a60048036038101906100959190610785565b61029d565b005b3480156100a857600080fd5b506100c360048036038101906100be9190610785565b6102f7565b6040516100d091906107cb565b60405180910390f35b3480156100e557600080fd5b5061010060048036038101906100fb9190610785565b610398565b60405161010d9190610801565b60405180910390f35b610130600480360381019061012b9190610848565b6103b8565b005b80600160008273ffffffffffffffffffffffffffffffffffffffff1673ffffffffffffffffffffffffffffffffffffffff16815260200190815260200160002060009054906101000a900460ff1661018957600080fd5b6000341161019657600080fd5b60003073ffffffffffffffffffffffffffffffffffffffff16346040516101bc906108b9565b60006040518083038185875af1925050503d80600081146101f9576040519150601f19603f3d011682016040523d82523d6000602084013e6101fe565b606091505b5050905080610242576040517f08c379a00000000000000000000000000000000000000000000000000000000081526004016102399061092b565b60405180910390fd5b34600260008573ffffffffffffffffffffffffffffffffffffffff1673ffffffffffffffffffffffffffffffffffffffff1681526020019081526020016000206000828254610291919061097a565b92505081905550505050565b60018060008373ffffffffffffffffffffffffffffffffffffffff1673ffffffffffffffffffffffffffffffffffffffff16815260200190815260200160002060006101000a81548160ff02191690831515021790555050565b600081600160008273ffffffffffffffffffffffffffffffffffffffff1673ffffffffffffffffffffffffffffffffffffffff16815260200190815260200160002060009054906101000a900460ff1661035057600080fd5b600260008473ffffffffffffffffffffffffffffffffffffffff1673ffffffffffffffffffffffffffffffffffffffff16815260200190815260200160002054915050919050565b60016020528060005260406000206000915054906101000a900460ff1681565b81600160008273ffffffffffffffffffffffffffffffffffffffff1673ffffffffffffffffffffffffffffffffffffffff16815260200190815260200160002060009054906101000a900460ff1661040f57600080fd5b60008060008054906101000a900473ffffffffffffffffffffffffffffffffffffffff1673ffffffffffffffffffffffffffffffffffffffff1663d6d0be9f856040518263ffffffff1660e01b815260040161046b91906107cb565b600060405180830381865afa158015610488573d6000803e3d6000fd5b505050506040513d6000823e3d601f19601f820116820180604052508101906104b19190610b8d565b909192939495965090919293949550909192939450909150905050809250819350505081600260008773ffffffffffffffffffffffffffffffffffffffff1673ffffffffffffffffffffffffffffffffffffffff168152602001908152602001600020541015610556576040517f08c379a000000000000000000000000000000000000000000000000000000000815260040161054d90610ce3565b60405180910390fd5b60008173ffffffffffffffffffffffffffffffffffffffff16670de0b6b3a7640000846105839190610d03565b60405161058f906108b9565b60006040518083038185875af1925050503d80600081146105cc576040519150601f19603f3d011682016040523d82523d6000602084013e6105d1565b606091505b5050905080610615576040517f08c379a000000000000000000000000000000000000000000000000000000000815260040161060c90610da9565b60405180910390fd5b670de0b6b3a7640000836106299190610d03565b600260008873ffffffffffffffffffffffffffffffffffffffff1673ffffffffffffffffffffffffffffffffffffffff16815260200190815260200160002060008282546106779190610dc9565b9250508190555060008054906101000a900473ffffffffffffffffffffffffffffffffffffffff1673ffffffffffffffffffffffffffffffffffffffff16632346698b86886040518363ffffffff1660e01b81526004016106d9929190610e0c565b600060405180830381600087803b1580156106f357600080fd5b505af1158015610707573d6000803e3d6000fd5b50505050505050505050565b6000604051905090565b600080fd5b600080fd5b600073ffffffffffffffffffffffffffffffffffffffff82169050919050565b600061075282610727565b9050919050565b61076281610747565b811461076d57600080fd5b50565b60008135905061077f81610759565b92915050565b60006020828403121561079b5761079a61071d565b5b60006107a984828501610770565b91505092915050565b6000819050919050565b6107c5816107b2565b82525050565b60006020820190506107e060008301846107bc565b92915050565b60008115159050919050565b6107fb816107e6565b82525050565b600060208201905061081660008301846107f2565b92915050565b610825816107b2565b811461083057600080fd5b50565b6000813590506108428161081c565b92915050565b6000806040838503121561085f5761085e61071d565b5b600061086d85828601610770565b925050602061087e85828601610833565b9150509250929050565b600081905092915050565b50565b60006108a3600083610888565b91506108ae82610893565b600082019050919050565b60006108c482610896565b9150819050919050565b600082825260208201905092915050565b7f4661696c20746f20746f7020757020616d6f756e742e00000000000000000000600082015250565b60006109156016836108ce565b9150610920826108df565b602082019050919050565b6000602082019050818103600083015261094481610908565b9050919050565b7f4e487b7100000000000000000000000000000000000000000000000000000000600052601160045260246000fd5b6000610985826107b2565b9150610990836107b2565b9250827fffffffffffffffffffffffffffffffffffffffffffffffffffffffffffffffff038211156109c5576109c461094b565b5b828201905092915050565b600080fd5b600080fd5b6000601f19601f8301169050919050565b7f4e487b7100000000000000000000000000000000000000000000000000000000600052604160045260246000fd5b610a23826109da565b810181811067ffffffffffffffff82111715610a4257610a416109eb565b5b80604052505050565b6000610a55610713565b9050610a618282610a1a565b919050565b600067ffffffffffffffff821115610a8157610a806109eb565b5b610a8a826109da565b9050602081019050919050565b60005b83811015610ab5578082015181840152602081019050610a9a565b83811115610ac4576000848401525b50505050565b6000610add610ad884610a66565b610a4b565b905082815260208101848484011115610af957610af86109d5565b5b610b04848285610a97565b509392505050565b600082601f830112610b2157610b206109d0565b5b8151610b31848260208601610aca565b91505092915050565b600081519050610b498161081c565b92915050565b6000610b5a82610727565b9050919050565b610b6a81610b4f565b8114610b7557600080fd5b50565b600081519050610b8781610b61565b92915050565b600080600080600080600080610100898b031215610bae57610bad61071d565b5b600089015167ffffffffffffffff811115610bcc57610bcb610722565b5b610bd88b828c01610b0c565b985050602089015167ffffffffffffffff811115610bf957610bf8610722565b5b610c058b828c01610b0c565b975050604089015167ffffffffffffffff811115610c2657610c25610722565b5b610c328b828c01610b0c565b9650506060610c438b828c01610b3a565b9550506080610c548b828c01610b78565b94505060a0610c658b828c01610b3a565b93505060c0610c768b828c01610b3a565b92505060e0610c878b828c01610b3a565b9150509295985092959890939650565b7f42616c616e6365206e6f7420656e6f7567680000000000000000000000000000600082015250565b6000610ccd6012836108ce565b9150610cd882610c97565b602082019050919050565b60006020820190508181036000830152610cfc81610cc0565b9050919050565b6000610d0e826107b2565b9150610d19836107b2565b9250817fffffffffffffffffffffffffffffffffffffffffffffffffffffffffffffffff0483118215151615610d5257610d5161094b565b5b828202905092915050565b7f4661696c656420746f2073656e64204574686572000000000000000000000000600082015250565b6000610d936014836108ce565b9150610d9e82610d5d565b602082019050919050565b60006020820190508181036000830152610dc281610d86565b9050919050565b6000610dd4826107b2565b9150610ddf836107b2565b925082821015610df257610df161094b565b5b828203905092915050565b610e0681610747565b82525050565b6000604082019050610e2160008301856107bc565b610e2e6020830184610dfd565b939250505056fea26469706673582212202159c456bfddc26b758ef4a190fa491cae56949a70f65bcf78529f0d51ebbca064736f6c634300080d0033",
  "immutableReferences": {},
  "source": "// SPDX-License-Identifier: GPL-3.0\r\npragma solidity ^0.8.13;\r\n\r\ninterface IProductManagement_C {\r\n    function getProductData(uint _productId) external view returns (string memory _name, string memory _size, string memory _origin, uint _price, address payable _owner, uint year, uint month, uint date);\r\n    function changeProductOwner(uint _productId, address _new) external;\r\n}\r\n\r\ncontract Consumer {\r\n\r\n    IProductManagement_C productManageContract;\r\n\r\n    mapping (address => bool) public isConsumer;\r\n    mapping (address => uint) private balance; // id => balance mapping to keep track of each consumer topped up balance\r\n\r\n    constructor (address _productManageAddress) {\r\n        productManageContract = IProductManagement_C(_productManageAddress);\r\n    }\r\n\r\n    fallback() external payable {\r\n\r\n    }\r\n\r\n    receive() external payable { \r\n        \r\n    }\r\n\r\n    modifier onlyConsumer(address _addr) {\r\n        require(isConsumer[_addr]);\r\n        _;\r\n    }\r\n\r\n    function registerConsumer(address _addr) public {\r\n        isConsumer[_addr] = true;\r\n    }\r\n\r\n    function topUp (address _addr) public payable onlyConsumer(_addr) {\r\n        require(msg.value > 0 ether);\r\n        (bool sent,) = payable(address(this)).call{value: msg.value}(\"\");\r\n        require(sent, \"Fail to top up amount.\");\r\n\r\n        balance[_addr] += msg.value;\r\n    }\r\n\r\n    function checkBalance (address _addr) public view onlyConsumer(_addr) returns (uint) {\r\n        return balance[_addr];\r\n    }\r\n\r\n    function buyFromSeller (address _addr, uint _productId) public payable onlyConsumer(_addr) {\r\n        uint price;\r\n        address payable _to; // product owner that we want to pay eth to\r\n\r\n        (,,, price, _to,,,) = productManageContract.getProductData(_productId);\r\n        \r\n        require(balance[_addr] >= price, \"Balance not enough\");\r\n\r\n        (bool sent, ) = _to.call{value: price * 10**18}(\"\");\r\n        require(sent, \"Failed to send Ether\");\r\n\r\n        balance[_addr] -= price * 10**18;\r\n        productManageContract.changeProductOwner(_productId, _addr);\r\n    }\r\n    \r\n}",
  "sourcePath": "C:\\Users\\User\\Desktop\\fake-product-identification-blockchain\\contracts\\consumer.sol",
  "compiler": {
    "name": "solc",
    "version": "0.8.13+commit.abaa5c0e.Emscripten.clang"
  },
  "schemaVersion": "3.4.16",
  "updatedAt": "2023-12-26T03:48:06.298Z",
  "networkType": "ethereum",
  "devdoc": {
    "kind": "dev",
    "methods": {},
    "version": 1
  },
  "userdoc": {
    "kind": "user",
    "methods": {},
    "version": 1
  }
}