{
  "contractName": "Manufacturer",
  "abi": [
    {
      "inputs": [
        {
          "internalType": "address",
          "name": "_productManageAddress",
          "type": "address"
        },
        {
          "internalType": "address",
          "name": "initOwner",
          "type": "address"
        }
      ],
      "stateMutability": "nonpayable",
      "type": "constructor"
    },
    {
      "inputs": [
        {
          "internalType": "address",
          "name": "owner",
          "type": "address"
        }
      ],
      "name": "OwnableInvalidOwner",
      "type": "error"
    },
    {
      "inputs": [
        {
          "internalType": "address",
          "name": "account",
          "type": "address"
        }
      ],
      "name": "OwnableUnauthorizedAccount",
      "type": "error"
    },
    {
      "anonymous": false,
      "inputs": [
        {
          "indexed": true,
          "internalType": "address",
          "name": "previousOwner",
          "type": "address"
        },
        {
          "indexed": true,
          "internalType": "address",
          "name": "newOwner",
          "type": "address"
        }
      ],
      "name": "OwnershipTransferred",
      "type": "event"
    },
    {
      "inputs": [],
      "name": "owner",
      "outputs": [
        {
          "internalType": "address",
          "name": "",
          "type": "address"
        }
      ],
      "stateMutability": "view",
      "type": "function",
      "constant": true
    },
    {
      "inputs": [],
      "name": "renounceOwnership",
      "outputs": [],
      "stateMutability": "nonpayable",
      "type": "function"
    },
    {
      "inputs": [
        {
          "internalType": "address",
          "name": "newOwner",
          "type": "address"
        }
      ],
      "name": "transferOwnership",
      "outputs": [],
      "stateMutability": "nonpayable",
      "type": "function"
    },
    {
      "inputs": [
        {
          "internalType": "string",
          "name": "_name",
          "type": "string"
        },
        {
          "internalType": "string",
          "name": "_size",
          "type": "string"
        },
        {
          "internalType": "string",
          "name": "_origin",
          "type": "string"
        },
        {
          "internalType": "uint256",
          "name": "_price",
          "type": "uint256"
        }
      ],
      "name": "addProduct",
      "outputs": [],
      "stateMutability": "nonpayable",
      "type": "function"
    },
    {
      "inputs": [
        {
          "internalType": "string",
          "name": "_sellerId",
          "type": "string"
        },
        {
          "internalType": "string",
          "name": "_shopName",
          "type": "string"
        },
        {
          "internalType": "address",
          "name": "_sellerAddr",
          "type": "address"
        }
      ],
      "name": "addSeller",
      "outputs": [],
      "stateMutability": "nonpayable",
      "type": "function"
    },
    {
      "inputs": [
        {
          "internalType": "uint256",
          "name": "_productId",
          "type": "uint256"
        }
      ],
      "name": "showSN",
      "outputs": [
        {
          "internalType": "uint256",
          "name": "",
          "type": "uint256"
        }
      ],
      "stateMutability": "view",
      "type": "function",
      "constant": true
    }
  ],
  "bytecode": "0x60806040523480156200001157600080fd5b5060405162000d5938038062000d59833981810160405281019062000037919062000236565b80600073ffffffffffffffffffffffffffffffffffffffff168173ffffffffffffffffffffffffffffffffffffffff1603620000ad5760006040517f1e4fbdf7000000000000000000000000000000000000000000000000000000008152600401620000a491906200028e565b60405180910390fd5b620000be816200010860201b60201c565b5081600160006101000a81548173ffffffffffffffffffffffffffffffffffffffff021916908373ffffffffffffffffffffffffffffffffffffffff1602179055505050620002ab565b60008060009054906101000a900473ffffffffffffffffffffffffffffffffffffffff169050816000806101000a81548173ffffffffffffffffffffffffffffffffffffffff021916908373ffffffffffffffffffffffffffffffffffffffff1602179055508173ffffffffffffffffffffffffffffffffffffffff168173ffffffffffffffffffffffffffffffffffffffff167f8be0079c531659141344cd1fd0a4f28419497f9722a3daafe3b4186f6b6457e060405160405180910390a35050565b600080fd5b600073ffffffffffffffffffffffffffffffffffffffff82169050919050565b6000620001fe82620001d1565b9050919050565b6200021081620001f1565b81146200021c57600080fd5b50565b600081519050620002308162000205565b92915050565b6000806040838503121562000250576200024f620001cc565b5b600062000260858286016200021f565b925050602062000273858286016200021f565b9150509250929050565b6200028881620001f1565b82525050565b6000602082019050620002a560008301846200027d565b92915050565b610a9e80620002bb6000396000f3fe608060405234801561001057600080fd5b50600436106100625760003560e01c8063715018a6146100675780638165fed5146100715780638da5cb5b1461008d57806398e4abf8146100ab578063b2bd5ff6146100db578063f2fde38b146100f7575b600080fd5b61006f610113565b005b61008b6004803603810190610086919061069f565b610127565b005b6100956101ca565b6040516100a2919061079b565b60405180910390f35b6100c560048036038101906100c091906107b6565b6101f3565b6040516100d291906107f2565b60405180910390f35b6100f560048036038101906100f09190610839565b610298565b005b610111600480360381019061010c91906108c4565b610336565b005b61011b6103bc565b6101256000610443565b565b61012f6103bc565b600160009054906101000a900473ffffffffffffffffffffffffffffffffffffffff1673ffffffffffffffffffffffffffffffffffffffff1663a7d423a985858585336040518663ffffffff1660e01b8152600401610192959493929190610979565b600060405180830381600087803b1580156101ac57600080fd5b505af11580156101c0573d6000803e3d6000fd5b5050505050505050565b60008060009054906101000a900473ffffffffffffffffffffffffffffffffffffffff16905090565b6000600160009054906101000a900473ffffffffffffffffffffffffffffffffffffffff1673ffffffffffffffffffffffffffffffffffffffff1663dd13ea95836040518263ffffffff1660e01b815260040161025091906107f2565b602060405180830381865afa15801561026d573d6000803e3d6000fd5b505050506040513d601f19601f8201168201806040525081019061029191906109f6565b9050919050565b6102a06103bc565b600160009054906101000a900473ffffffffffffffffffffffffffffffffffffffff1673ffffffffffffffffffffffffffffffffffffffff1663fb68b0ed8484846040518463ffffffff1660e01b81526004016102ff93929190610a23565b600060405180830381600087803b15801561031957600080fd5b505af115801561032d573d6000803e3d6000fd5b50505050505050565b61033e6103bc565b600073ffffffffffffffffffffffffffffffffffffffff168173ffffffffffffffffffffffffffffffffffffffff16036103b05760006040517f1e4fbdf70000000000000000000000000000000000000000000000000000000081526004016103a7919061079b565b60405180910390fd5b6103b981610443565b50565b6103c4610507565b73ffffffffffffffffffffffffffffffffffffffff166103e26101ca565b73ffffffffffffffffffffffffffffffffffffffff161461044157610405610507565b6040517f118cdaa7000000000000000000000000000000000000000000000000000000008152600401610438919061079b565b60405180910390fd5b565b60008060009054906101000a900473ffffffffffffffffffffffffffffffffffffffff169050816000806101000a81548173ffffffffffffffffffffffffffffffffffffffff021916908373ffffffffffffffffffffffffffffffffffffffff1602179055508173ffffffffffffffffffffffffffffffffffffffff168173ffffffffffffffffffffffffffffffffffffffff167f8be0079c531659141344cd1fd0a4f28419497f9722a3daafe3b4186f6b6457e060405160405180910390a35050565b600033905090565b6000604051905090565b600080fd5b600080fd5b600080fd5b600080fd5b6000601f19601f8301169050919050565b7f4e487b7100000000000000000000000000000000000000000000000000000000600052604160045260246000fd5b6105768261052d565b810181811067ffffffffffffffff821117156105955761059461053e565b5b80604052505050565b60006105a861050f565b90506105b4828261056d565b919050565b600067ffffffffffffffff8211156105d4576105d361053e565b5b6105dd8261052d565b9050602081019050919050565b82818337600083830152505050565b600061060c610607846105b9565b61059e565b90508281526020810184848401111561062857610627610528565b5b6106338482856105ea565b509392505050565b600082601f8301126106505761064f610523565b5b81356106608482602086016105f9565b91505092915050565b6000819050919050565b61067c81610669565b811461068757600080fd5b50565b60008135905061069981610673565b92915050565b600080600080608085870312156106b9576106b8610519565b5b600085013567ffffffffffffffff8111156106d7576106d661051e565b5b6106e38782880161063b565b945050602085013567ffffffffffffffff8111156107045761070361051e565b5b6107108782880161063b565b935050604085013567ffffffffffffffff8111156107315761073061051e565b5b61073d8782880161063b565b925050606061074e8782880161068a565b91505092959194509250565b600073ffffffffffffffffffffffffffffffffffffffff82169050919050565b60006107858261075a565b9050919050565b6107958161077a565b82525050565b60006020820190506107b0600083018461078c565b92915050565b6000602082840312156107cc576107cb610519565b5b60006107da8482850161068a565b91505092915050565b6107ec81610669565b82525050565b600060208201905061080760008301846107e3565b92915050565b6108168161077a565b811461082157600080fd5b50565b6000813590506108338161080d565b92915050565b60008060006060848603121561085257610851610519565b5b600084013567ffffffffffffffff8111156108705761086f61051e565b5b61087c8682870161063b565b935050602084013567ffffffffffffffff81111561089d5761089c61051e565b5b6108a98682870161063b565b92505060406108ba86828701610824565b9150509250925092565b6000602082840312156108da576108d9610519565b5b60006108e884828501610824565b91505092915050565b600081519050919050565b600082825260208201905092915050565b60005b8381101561092b578082015181840152602081019050610910565b8381111561093a576000848401525b50505050565b600061094b826108f1565b61095581856108fc565b935061096581856020860161090d565b61096e8161052d565b840191505092915050565b600060a08201905081810360008301526109938188610940565b905081810360208301526109a78187610940565b905081810360408301526109bb8186610940565b90506109ca60608301856107e3565b6109d7608083018461078c565b9695505050505050565b6000815190506109f081610673565b92915050565b600060208284031215610a0c57610a0b610519565b5b6000610a1a848285016109e1565b91505092915050565b60006060820190508181036000830152610a3d8186610940565b90508181036020830152610a518185610940565b9050610a60604083018461078c565b94935050505056fea264697066735822122030c9a594be4f6077cccb710efe6c5ba18ce143e38961deccd74d8c3f68151d3a64736f6c634300080d0033",
  "immutableReferences": {},
  "source": "// SPDX-License-Identifier: GPL-3.0\r\npragma solidity ^0.8.13;\r\nimport \"@openzeppelin/contracts/access/Ownable.sol\";\r\n\r\ninterface IProductManagement {\r\n    function makeProduct(string memory _name, string memory _size, string memory _origin, uint _price, address _newOwner) external;\r\n    function registerSeller(string memory _sellerId, string memory _shopName, address _sellerAddr) external;\r\n    function showSerialNumber (uint _productId) external view returns (uint);\r\n}\r\n\r\ncontract Manufacturer is Ownable {\r\n\r\n    IProductManagement productManageContract;\r\n\r\n    constructor (address _productManageAddress, address initOwner) Ownable(initOwner) {\r\n        productManageContract = IProductManagement(_productManageAddress);\r\n    }\r\n\r\n    function addProduct (string memory _name, string memory _size, string memory _origin, uint _price) public onlyOwner {\r\n        productManageContract.makeProduct(_name, _size, _origin, _price, msg.sender);\r\n    }\r\n\r\n    function addSeller (string memory _sellerId, string memory _shopName, address _sellerAddr) public onlyOwner {\r\n        productManageContract.registerSeller(_sellerId, _shopName, _sellerAddr);\r\n    }\r\n\r\n    function showSN(uint _productId) public view returns (uint) {\r\n        return productManageContract.showSerialNumber(_productId);\r\n    }\r\n}",
  "sourcePath": "C:\\Users\\User\\Desktop\\fake-product-blockchain - Copy\\contracts\\manufacturer.sol",
  "compiler": {
    "name": "solc",
    "version": "0.8.13+commit.abaa5c0e.Emscripten.clang"
  },
  "schemaVersion": "3.4.16",
  "updatedAt": "2023-12-24T06:21:01.570Z",
  "networkType": "ethereum",
  "devdoc": {
    "errors": {
      "OwnableInvalidOwner(address)": [
        {
          "details": "The owner is not a valid owner account. (eg. `address(0)`)"
        }
      ],
      "OwnableUnauthorizedAccount(address)": [
        {
          "details": "The caller account is not authorized to perform an operation."
        }
      ]
    },
    "kind": "dev",
    "methods": {
      "owner()": {
        "details": "Returns the address of the current owner."
      },
      "renounceOwnership()": {
        "details": "Leaves the contract without owner. It will not be possible to call `onlyOwner` functions. Can only be called by the current owner. NOTE: Renouncing ownership will leave the contract without an owner, thereby disabling any functionality that is only available to the owner."
      },
      "transferOwnership(address)": {
        "details": "Transfers ownership of the contract to a new account (`newOwner`). Can only be called by the current owner."
      }
    },
    "version": 1
  },
  "userdoc": {
    "kind": "user",
    "methods": {},
    "version": 1
  }
}