{
  "contractName": "ProductManagement",
  "abi": [
    {
      "inputs": [
        {
          "internalType": "address",
          "name": "initOwner",
          "type": "address"
        }
      ],
      "stateMutability": "nonpayable",
      "type": "constructor"
    },
    {
      "inputs": [
        {
          "internalType": "address",
          "name": "owner",
          "type": "address"
        }
      ],
      "name": "OwnableInvalidOwner",
      "type": "error"
    },
    {
      "inputs": [
        {
          "internalType": "address",
          "name": "account",
          "type": "address"
        }
      ],
      "name": "OwnableUnauthorizedAccount",
      "type": "error"
    },
    {
      "anonymous": false,
      "inputs": [
        {
          "indexed": false,
          "internalType": "string",
          "name": "name",
          "type": "string"
        },
        {
          "indexed": false,
          "internalType": "uint256",
          "name": "price",
          "type": "uint256"
        }
      ],
      "name": "NewProduct",
      "type": "event"
    },
    {
      "anonymous": false,
      "inputs": [
        {
          "indexed": false,
          "internalType": "string",
          "name": "sellerId",
          "type": "string"
        },
        {
          "indexed": false,
          "internalType": "string",
          "name": "shopName",
          "type": "string"
        }
      ],
      "name": "NewSeller",
      "type": "event"
    },
    {
      "anonymous": false,
      "inputs": [
        {
          "indexed": true,
          "internalType": "address",
          "name": "previousOwner",
          "type": "address"
        },
        {
          "indexed": true,
          "internalType": "address",
          "name": "newOwner",
          "type": "address"
        }
      ],
      "name": "OwnershipTransferred",
      "type": "event"
    },
    {
      "inputs": [
        {
          "internalType": "address",
          "name": "",
          "type": "address"
        }
      ],
      "name": "isSellerAddr",
      "outputs": [
        {
          "internalType": "bool",
          "name": "",
          "type": "bool"
        }
      ],
      "stateMutability": "view",
      "type": "function",
      "constant": true
    },
    {
      "inputs": [],
      "name": "owner",
      "outputs": [
        {
          "internalType": "address",
          "name": "",
          "type": "address"
        }
      ],
      "stateMutability": "view",
      "type": "function",
      "constant": true
    },
    {
      "inputs": [
        {
          "internalType": "address",
          "name": "",
          "type": "address"
        }
      ],
      "name": "ownerProductCount",
      "outputs": [
        {
          "internalType": "uint256",
          "name": "",
          "type": "uint256"
        }
      ],
      "stateMutability": "view",
      "type": "function",
      "constant": true
    },
    {
      "inputs": [
        {
          "internalType": "uint256",
          "name": "",
          "type": "uint256"
        }
      ],
      "name": "productToOwner",
      "outputs": [
        {
          "internalType": "address",
          "name": "",
          "type": "address"
        }
      ],
      "stateMutability": "view",
      "type": "function",
      "constant": true
    },
    {
      "inputs": [
        {
          "internalType": "uint256",
          "name": "",
          "type": "uint256"
        }
      ],
      "name": "products",
      "outputs": [
        {
          "internalType": "string",
          "name": "name",
          "type": "string"
        },
        {
          "internalType": "string",
          "name": "size",
          "type": "string"
        },
        {
          "internalType": "string",
          "name": "origin",
          "type": "string"
        },
        {
          "internalType": "uint256",
          "name": "price",
          "type": "uint256"
        },
        {
          "internalType": "uint256",
          "name": "year",
          "type": "uint256"
        },
        {
          "internalType": "uint256",
          "name": "month",
          "type": "uint256"
        },
        {
          "internalType": "uint256",
          "name": "date",
          "type": "uint256"
        }
      ],
      "stateMutability": "view",
      "type": "function",
      "constant": true
    },
    {
      "inputs": [],
      "name": "renounceOwnership",
      "outputs": [],
      "stateMutability": "nonpayable",
      "type": "function"
    },
    {
      "inputs": [
        {
          "internalType": "string",
          "name": "",
          "type": "string"
        }
      ],
      "name": "sellers",
      "outputs": [
        {
          "internalType": "string",
          "name": "sellerId",
          "type": "string"
        },
        {
          "internalType": "string",
          "name": "shopName",
          "type": "string"
        },
        {
          "internalType": "bool",
          "name": "isSeller",
          "type": "bool"
        },
        {
          "internalType": "address",
          "name": "sellerAddr",
          "type": "address"
        }
      ],
      "stateMutability": "view",
      "type": "function",
      "constant": true
    },
    {
      "inputs": [
        {
          "internalType": "uint256",
          "name": "",
          "type": "uint256"
        }
      ],
      "name": "serialToProduct",
      "outputs": [
        {
          "internalType": "uint256",
          "name": "",
          "type": "uint256"
        }
      ],
      "stateMutability": "view",
      "type": "function",
      "constant": true
    },
    {
      "inputs": [
        {
          "internalType": "address",
          "name": "newOwner",
          "type": "address"
        }
      ],
      "name": "transferOwnership",
      "outputs": [],
      "stateMutability": "nonpayable",
      "type": "function"
    },
    {
      "inputs": [
        {
          "internalType": "string",
          "name": "_name",
          "type": "string"
        },
        {
          "internalType": "string",
          "name": "_size",
          "type": "string"
        },
        {
          "internalType": "string",
          "name": "_origin",
          "type": "string"
        },
        {
          "internalType": "uint256",
          "name": "_price",
          "type": "uint256"
        },
        {
          "internalType": "address",
          "name": "_newOwner",
          "type": "address"
        }
      ],
      "name": "makeProduct",
      "outputs": [],
      "stateMutability": "nonpayable",
      "type": "function"
    },
    {
      "inputs": [
        {
          "internalType": "uint256",
          "name": "_productId",
          "type": "uint256"
        }
      ],
      "name": "getProductData",
      "outputs": [
        {
          "internalType": "string",
          "name": "_name",
          "type": "string"
        },
        {
          "internalType": "string",
          "name": "_size",
          "type": "string"
        },
        {
          "internalType": "string",
          "name": "_origin",
          "type": "string"
        },
        {
          "internalType": "uint256",
          "name": "_price",
          "type": "uint256"
        },
        {
          "internalType": "address payable",
          "name": "_owner",
          "type": "address"
        },
        {
          "internalType": "uint256",
          "name": "year",
          "type": "uint256"
        },
        {
          "internalType": "uint256",
          "name": "month",
          "type": "uint256"
        },
        {
          "internalType": "uint256",
          "name": "date",
          "type": "uint256"
        }
      ],
      "stateMutability": "view",
      "type": "function",
      "constant": true
    },
    {
      "inputs": [],
      "name": "getTotalProduct",
      "outputs": [
        {
          "internalType": "uint256",
          "name": "",
          "type": "uint256"
        }
      ],
      "stateMutability": "view",
      "type": "function",
      "constant": true
    },
    {
      "inputs": [
        {
          "internalType": "string",
          "name": "_sellerId",
          "type": "string"
        },
        {
          "internalType": "string",
          "name": "_shopName",
          "type": "string"
        },
        {
          "internalType": "address",
          "name": "_sellerAddr",
          "type": "address"
        }
      ],
      "name": "registerSeller",
      "outputs": [],
      "stateMutability": "nonpayable",
      "type": "function"
    },
    {
      "inputs": [
        {
          "internalType": "string",
          "name": "_sellerId",
          "type": "string"
        }
      ],
      "name": "verifySeller",
      "outputs": [
        {
          "internalType": "bool",
          "name": "",
          "type": "bool"
        }
      ],
      "stateMutability": "view",
      "type": "function",
      "constant": true
    },
    {
      "inputs": [
        {
          "internalType": "address",
          "name": "_productOwner",
          "type": "address"
        }
      ],
      "name": "incOwnerProductCount",
      "outputs": [],
      "stateMutability": "nonpayable",
      "type": "function"
    },
    {
      "inputs": [
        {
          "internalType": "address",
          "name": "_productOwner",
          "type": "address"
        }
      ],
      "name": "decOwnerProductCount",
      "outputs": [],
      "stateMutability": "nonpayable",
      "type": "function"
    },
    {
      "inputs": [
        {
          "internalType": "uint256",
          "name": "_productId",
          "type": "uint256"
        },
        {
          "internalType": "address",
          "name": "_new",
          "type": "address"
        }
      ],
      "name": "changeProductOwner",
      "outputs": [],
      "stateMutability": "nonpayable",
      "type": "function"
    },
    {
      "inputs": [
        {
          "internalType": "uint256",
          "name": "_productId",
          "type": "uint256"
        }
      ],
      "name": "showSerialNumber",
      "outputs": [
        {
          "internalType": "uint256",
          "name": "",
          "type": "uint256"
        }
      ],
      "stateMutability": "view",
      "type": "function",
      "constant": true
    },
    {
      "inputs": [
        {
          "internalType": "uint256",
          "name": "_productSN",
          "type": "uint256"
        }
      ],
      "name": "verifyProduct",
      "outputs": [
        {
          "internalType": "bool",
          "name": "",
          "type": "bool"
        }
      ],
      "stateMutability": "view",
      "type": "function",
      "constant": true
    },
    {
      "inputs": [
        {
          "internalType": "string",
          "name": "_sellerId",
          "type": "string"
        }
      ],
      "name": "getSellerData",
      "outputs": [
        {
          "internalType": "string",
          "name": "_shopName",
          "type": "string"
        },
        {
          "internalType": "bool",
          "name": "_isSeller",
          "type": "bool"
        },
        {
          "internalType": "address",
          "name": "_sellerAddr",
          "type": "address"
        }
      ],
      "stateMutability": "view",
      "type": "function",
      "constant": true
    }
  ],
  "bytecode": "0x60806040526008600155600154600a6200001a919062000335565b60025560016003553480156200002f57600080fd5b5060405162002bd038038062002bd08339818101604052810190620000559190620003f0565b80600073ffffffffffffffffffffffffffffffffffffffff168173ffffffffffffffffffffffffffffffffffffffff1603620000cb5760006040517f1e4fbdf7000000000000000000000000000000000000000000000000000000008152600401620000c2919062000433565b60405180910390fd5b620000dc81620000e460201b60201c565b505062000450565b60008060009054906101000a900473ffffffffffffffffffffffffffffffffffffffff169050816000806101000a81548173ffffffffffffffffffffffffffffffffffffffff021916908373ffffffffffffffffffffffffffffffffffffffff1602179055508173ffffffffffffffffffffffffffffffffffffffff168173ffffffffffffffffffffffffffffffffffffffff167f8be0079c531659141344cd1fd0a4f28419497f9722a3daafe3b4186f6b6457e060405160405180910390a35050565b7f4e487b7100000000000000000000000000000000000000000000000000000000600052601160045260246000fd5b60008160011c9050919050565b6000808291508390505b600185111562000236578086048111156200020e576200020d620001a8565b5b60018516156200021e5780820291505b80810290506200022e85620001d7565b9450620001ee565b94509492505050565b60008262000251576001905062000324565b8162000261576000905062000324565b81600181146200027a57600281146200028557620002bb565b600191505062000324565b60ff8411156200029a5762000299620001a8565b5b8360020a915084821115620002b457620002b3620001a8565b5b5062000324565b5060208310610133831016604e8410600b8410161715620002f55782820a905083811115620002ef57620002ee620001a8565b5b62000324565b620003048484846001620001e4565b925090508184048111156200031e576200031d620001a8565b5b81810290505b9392505050565b6000819050919050565b600062000342826200032b565b91506200034f836200032b565b92506200037e7fffffffffffffffffffffffffffffffffffffffffffffffffffffffffffffffff84846200023f565b905092915050565b600080fd5b600073ffffffffffffffffffffffffffffffffffffffff82169050919050565b6000620003b8826200038b565b9050919050565b620003ca81620003ab565b8114620003d657600080fd5b50565b600081519050620003ea81620003bf565b92915050565b60006020828403121562000409576200040862000386565b5b60006200041984828501620003d9565b91505092915050565b6200042d81620003ab565b82525050565b60006020820190506200044a600083018462000422565b92915050565b61277080620004606000396000f3fe608060405234801561001057600080fd5b506004361061012c5760003560e01c80638da5cb5b116100ad578063d6d0be9f11610071578063d6d0be9f14610372578063dd0c6d89146103a9578063dd13ea95146103d9578063f2fde38b14610409578063fb68b0ed146104255761012c565b80638da5cb5b146102a8578063a7d423a9146102c6578063b4748e5e146102e2578063d4d0102a14610312578063d5089067146103425761012c565b8063715018a6116100f4578063715018a6146101fb57806377f986161461020557806379b6ac87146102235780637acc0b201461023f5780638060ea6b146102755761012c565b80631c4b9b4d146101315780632346698b1461014d578063297aafd614610169578063420fadc81461019b578063524e8462146101cb575b600080fd5b61014b60048036038101906101469190611acb565b610441565b005b61016760048036038101906101629190611b2e565b610499565b005b610183600480360381019061017e9190611cb4565b6105d2565b60405161019293929190611daf565b60405180910390f35b6101b560048036038101906101b09190611ded565b610702565b6040516101c29190611e1a565b60405180910390f35b6101e560048036038101906101e09190611ded565b610735565b6040516101f29190611e35565b60405180910390f35b610203610767565b005b61020d61077b565b60405161021a9190611e5f565b60405180910390f35b61023d60048036038101906102389190611acb565b610788565b005b61025960048036038101906102549190611ded565b6107e0565b60405161026c9796959493929190611e7a565b60405180910390f35b61028f600480360381019061028a9190611cb4565b6109ca565b60405161029f9493929190611efe565b60405180910390f35b6102b0610b4d565b6040516102bd9190611e1a565b60405180910390f35b6102e060048036038101906102db9190611f51565b610b76565b005b6102fc60048036038101906102f79190611acb565b610d9d565b6040516103099190611e35565b60405180910390f35b61032c60048036038101906103279190611acb565b610dbd565b6040516103399190611e5f565b60405180910390f35b61035c60048036038101906103579190611cb4565b610dd5565b6040516103699190611e35565b60405180910390f35b61038c60048036038101906103879190611ded565b610e0d565b6040516103a0989796959493929190612041565b60405180910390f35b6103c360048036038101906103be9190611ded565b6110a5565b6040516103d09190611e5f565b60405180910390f35b6103f360048036038101906103ee9190611ded565b6110bd565b6040516104009190611e5f565b60405180910390f35b610423600480360381019061041e9190611acb565b6110da565b005b61043f600480360381019061043a91906120d4565b611160565b005b600a60008273ffffffffffffffffffffffffffffffffffffffff1673ffffffffffffffffffffffffffffffffffffffff16815260200190815260200160002060008154809291906104919061218e565b919050555050565b60006009600084815260200190815260200160002060009054906101000a900473ffffffffffffffffffffffffffffffffffffffff169050816009600085815260200190815260200160002060006101000a81548173ffffffffffffffffffffffffffffffffffffffff021916908373ffffffffffffffffffffffffffffffffffffffff160217905550600a60008273ffffffffffffffffffffffffffffffffffffffff1673ffffffffffffffffffffffffffffffffffffffff1681526020019081526020016000206000815480929190610573906121d6565b9190505550600a60008373ffffffffffffffffffffffffffffffffffffffff1673ffffffffffffffffffffffffffffffffffffffff16815260200190815260200160002060008154809291906105c89061218e565b9190505550505050565b60606000806005846040516105e7919061223b565b9081526020016040518091039020600101600585604051610608919061223b565b908152602001604051809103902060020160009054906101000a900460ff16600586604051610637919061223b565b908152602001604051809103902060020160019054906101000a900473ffffffffffffffffffffffffffffffffffffffff1682805461067590612281565b80601f01602080910402602001604051908101604052809291908181526020018280546106a190612281565b80156106ee5780601f106106c3576101008083540402835291602001916106ee565b820191906000526020600020905b8154815290600101906020018083116106d157829003601f168201915b505050505092509250925092509193909250565b60096020528060005260406000206000915054906101000a900473ffffffffffffffffffffffffffffffffffffffff1681565b600060086000600760008581526020019081526020016000205481526020019081526020016000205482149050919050565b61076f61137a565b6107796000611401565b565b6000600480549050905090565b600a60008273ffffffffffffffffffffffffffffffffffffffff1673ffffffffffffffffffffffffffffffffffffffff16815260200190815260200160002060008154809291906107d8906121d6565b919050555050565b600481815481106107f057600080fd5b906000526020600020906007020160009150905080600001805461081390612281565b80601f016020809104026020016040519081016040528092919081815260200182805461083f90612281565b801561088c5780601f106108615761010080835404028352916020019161088c565b820191906000526020600020905b81548152906001019060200180831161086f57829003601f168201915b5050505050908060010180546108a190612281565b80601f01602080910402602001604051908101604052809291908181526020018280546108cd90612281565b801561091a5780601f106108ef5761010080835404028352916020019161091a565b820191906000526020600020905b8154815290600101906020018083116108fd57829003601f168201915b50505050509080600201805461092f90612281565b80601f016020809104026020016040519081016040528092919081815260200182805461095b90612281565b80156109a85780601f1061097d576101008083540402835291602001916109a8565b820191906000526020600020905b81548152906001019060200180831161098b57829003601f168201915b5050505050908060030154908060040154908060050154908060060154905087565b600581805160208101820180518482526020830160208501208183528095505050505050600091509050806000018054610a0390612281565b80601f0160208091040260200160405190810160405280929190818152602001828054610a2f90612281565b8015610a7c5780601f10610a5157610100808354040283529160200191610a7c565b820191906000526020600020905b815481529060010190602001808311610a5f57829003601f168201915b505050505090806001018054610a9190612281565b80601f0160208091040260200160405190810160405280929190818152602001828054610abd90612281565b8015610b0a5780601f10610adf57610100808354040283529160200191610b0a565b820191906000526020600020905b815481529060010190602001808311610aed57829003601f168201915b5050505050908060020160009054906101000a900460ff16908060020160019054906101000a900473ffffffffffffffffffffffffffffffffffffffff16905084565b60008060009054906101000a900473ffffffffffffffffffffffffffffffffffffffff16905090565b600080600080610b846114c5565b935093509350935060046040518060e001604052808b81526020018a81526020018981526020018881526020018581526020018481526020018381525090806001815401808255809150506001900390600052602060002090600702016000909190919091506000820151816000019080519060200190610c069291906119b6565b506020820151816001019080519060200190610c239291906119b6565b506040820151816002019080519060200190610c409291906119b6565b50606082015181600301556080820151816004015560a0820151816005015560c08201518160060155505060006001600480549050610c7f91906122b2565b9050806007600087815260200190815260200160002081905550846008600083815260200190815260200160002081905550856009600083815260200190815260200160002060006101000a81548173ffffffffffffffffffffffffffffffffffffffff021916908373ffffffffffffffffffffffffffffffffffffffff160217905550600a60008773ffffffffffffffffffffffffffffffffffffffff1673ffffffffffffffffffffffffffffffffffffffff1681526020019081526020016000206000815480929190610d539061218e565b91905055507f2e165cec6f27aaa90f62be1d6ecb7f541fab93a61119352647e25eebbbd667418a88604051610d899291906122e6565b60405180910390a150505050505050505050565b60066020528060005260406000206000915054906101000a900460ff1681565b600a6020528060005260406000206000915090505481565b6000600582604051610de7919061223b565b908152602001604051809103902060020160009054906101000a900460ff169050919050565b6060806060600080600080600060048981548110610e2e57610e2d612316565b5b906000526020600020906007020160000160048a81548110610e5357610e52612316565b5b906000526020600020906007020160010160048b81548110610e7857610e77612316565b5b906000526020600020906007020160020160048c81548110610e9d57610e9c612316565b5b906000526020600020906007020160030154600960008e815260200190815260200160002060009054906101000a900473ffffffffffffffffffffffffffffffffffffffff16878787878054610ef290612281565b80601f0160208091040260200160405190810160405280929190818152602001828054610f1e90612281565b8015610f6b5780601f10610f4057610100808354040283529160200191610f6b565b820191906000526020600020905b815481529060010190602001808311610f4e57829003601f168201915b50505050509750868054610f7e90612281565b80601f0160208091040260200160405190810160405280929190818152602001828054610faa90612281565b8015610ff75780601f10610fcc57610100808354040283529160200191610ff7565b820191906000526020600020905b815481529060010190602001808311610fda57829003601f168201915b5050505050965085805461100a90612281565b80601f016020809104026020016040519081016040528092919081815260200182805461103690612281565b80156110835780601f1061105857610100808354040283529160200191611083565b820191906000526020600020905b81548152906001019060200180831161106657829003601f168201915b5050505050955097509750975097509750975097509750919395975091939597565b60076020528060005260406000206000915090505481565b600060086000838152602001908152602001600020549050919050565b6110e261137a565b600073ffffffffffffffffffffffffffffffffffffffff168173ffffffffffffffffffffffffffffffffffffffff16036111545760006040517f1e4fbdf700000000000000000000000000000000000000000000000000000000815260040161114b9190611e1a565b60405180910390fd5b61115d81611401565b50565b600583604051611170919061223b565b908152602001604051809103902060020160009054906101000a900460ff161561119957600080fd5b826005846040516111aa919061223b565b908152602001604051809103902060000190805190602001906111ce9291906119b6565b50816005846040516111e0919061223b565b908152602001604051809103902060010190805190602001906112049291906119b6565b506001600584604051611217919061223b565b908152602001604051809103902060020160006101000a81548160ff02191690831515021790555080600584604051611250919061223b565b908152602001604051809103902060020160016101000a81548173ffffffffffffffffffffffffffffffffffffffff021916908373ffffffffffffffffffffffffffffffffffffffff1602179055506000600a60008373ffffffffffffffffffffffffffffffffffffffff1673ffffffffffffffffffffffffffffffffffffffff168152602001908152602001600020819055506001600660008373ffffffffffffffffffffffffffffffffffffffff1673ffffffffffffffffffffffffffffffffffffffff16815260200190815260200160002060006101000a81548160ff0219169083151502179055507fa11e8fe53d717912942aa5895f19225b5723cb6571b67a6ba041f9e5233dcbf3838360405161136d929190612345565b60405180910390a1505050565b611382611596565b73ffffffffffffffffffffffffffffffffffffffff166113a0610b4d565b73ffffffffffffffffffffffffffffffffffffffff16146113ff576113c3611596565b6040517f118cdaa70000000000000000000000000000000000000000000000000000000081526004016113f69190611e1a565b60405180910390fd5b565b60008060009054906101000a900473ffffffffffffffffffffffffffffffffffffffff169050816000806101000a81548173ffffffffffffffffffffffffffffffffffffffff021916908373ffffffffffffffffffffffffffffffffffffffff1602179055508173ffffffffffffffffffffffffffffffffffffffff168173ffffffffffffffffffffffffffffffffffffffff167f8be0079c531659141344cd1fd0a4f28419497f9722a3daafe3b4186f6b6457e060405160405180910390a35050565b60008060008060006114d561159e565b905060008060006114e5846115a6565b9250925092506000600360008154809291906115009061218e565b9190505590506000611511866115c7565b61151a836115c7565b60405160200161152b92919061237c565b604051602081830303815290604052905060025481604051602001611550919061223b565b6040516020818303038152906040528051906020012060001c61157391906123cf565b600161157f9190612400565b858585995099509950995050505050505090919293565b600033905090565b600042905090565b60008060006115b484611695565b8093508194508295505050509193909250565b6060600060016115d6846116c4565b01905060008167ffffffffffffffff8111156115f5576115f4611b89565b5b6040519080825280601f01601f1916602001820160405280156116275781602001600182028036833780820191505090505b509050600082602001820190505b60011561168a578080600190039150507f3031323334353637383961626364656600000000000000000000000000000000600a86061a8153600a858161167e5761167d6123a0565b5b04945060008503611635575b819350505050919050565b60008060006116b162015180856116ac9190612456565b611817565b8093508194508295505050509193909250565b600080600090507a184f03e93ff9f4daa797ed6e38ed64bf6a1f0100000000000000008310611722577a184f03e93ff9f4daa797ed6e38ed64bf6a1f0100000000000000008381611718576117176123a0565b5b0492506040810190505b6d04ee2d6d415b85acef8100000000831061175f576d04ee2d6d415b85acef81000000008381611755576117546123a0565b5b0492506020810190505b662386f26fc10000831061178e57662386f26fc100008381611784576117836123a0565b5b0492506010810190505b6305f5e10083106117b7576305f5e10083816117ad576117ac6123a0565b5b0492506008810190505b61271083106117dc5761271083816117d2576117d16123a0565b5b0492506004810190505b606483106117ff57606483816117f5576117f46123a0565b5b0492506002810190505b600a831061180e576001810190505b80915050919050565b600080600080849050600062253d8c62010bd9836118359190612491565b61183f9190612491565b9050600062023ab18260046118549190612525565b61185e919061263c565b9050600460038262023ab16118739190612525565b61187d9190612491565b611887919061263c565b8261189291906126a6565b9150600062164b096001846118a79190612491565b610fa06118b49190612525565b6118be919061263c565b9050601f6004826105b56118d29190612525565b6118dc919061263c565b846118e791906126a6565b6118f19190612491565b9250600061098f8460506119059190612525565b61190f919061263c565b9050600060508261098f6119239190612525565b61192d919061263c565b8561193891906126a6565b9050600b82611947919061263c565b945084600c6119569190612525565b6002836119639190612491565b61196d91906126a6565b9150848360318661197e91906126a6565b606461198a9190612525565b6119949190612491565b61199e9190612491565b92508298508197508096505050505050509193909250565b8280546119c290612281565b90600052602060002090601f0160209004810192826119e45760008555611a2b565b82601f106119fd57805160ff1916838001178555611a2b565b82800160010185558215611a2b579182015b82811115611a2a578251825591602001919060010190611a0f565b5b509050611a389190611a3c565b5090565b5b80821115611a55576000816000905550600101611a3d565b5090565b6000604051905090565b600080fd5b600080fd5b600073ffffffffffffffffffffffffffffffffffffffff82169050919050565b6000611a9882611a6d565b9050919050565b611aa881611a8d565b8114611ab357600080fd5b50565b600081359050611ac581611a9f565b92915050565b600060208284031215611ae157611ae0611a63565b5b6000611aef84828501611ab6565b91505092915050565b6000819050919050565b611b0b81611af8565b8114611b1657600080fd5b50565b600081359050611b2881611b02565b92915050565b60008060408385031215611b4557611b44611a63565b5b6000611b5385828601611b19565b9250506020611b6485828601611ab6565b9150509250929050565b600080fd5b600080fd5b6000601f19601f8301169050919050565b7f4e487b7100000000000000000000000000000000000000000000000000000000600052604160045260246000fd5b611bc182611b78565b810181811067ffffffffffffffff82111715611be057611bdf611b89565b5b80604052505050565b6000611bf3611a59565b9050611bff8282611bb8565b919050565b600067ffffffffffffffff821115611c1f57611c1e611b89565b5b611c2882611b78565b9050602081019050919050565b82818337600083830152505050565b6000611c57611c5284611c04565b611be9565b905082815260208101848484011115611c7357611c72611b73565b5b611c7e848285611c35565b509392505050565b600082601f830112611c9b57611c9a611b6e565b5b8135611cab848260208601611c44565b91505092915050565b600060208284031215611cca57611cc9611a63565b5b600082013567ffffffffffffffff811115611ce857611ce7611a68565b5b611cf484828501611c86565b91505092915050565b600081519050919050565b600082825260208201905092915050565b60005b83811015611d37578082015181840152602081019050611d1c565b83811115611d46576000848401525b50505050565b6000611d5782611cfd565b611d618185611d08565b9350611d71818560208601611d19565b611d7a81611b78565b840191505092915050565b60008115159050919050565b611d9a81611d85565b82525050565b611da981611a8d565b82525050565b60006060820190508181036000830152611dc98186611d4c565b9050611dd86020830185611d91565b611de56040830184611da0565b949350505050565b600060208284031215611e0357611e02611a63565b5b6000611e1184828501611b19565b91505092915050565b6000602082019050611e2f6000830184611da0565b92915050565b6000602082019050611e4a6000830184611d91565b92915050565b611e5981611af8565b82525050565b6000602082019050611e746000830184611e50565b92915050565b600060e0820190508181036000830152611e94818a611d4c565b90508181036020830152611ea88189611d4c565b90508181036040830152611ebc8188611d4c565b9050611ecb6060830187611e50565b611ed86080830186611e50565b611ee560a0830185611e50565b611ef260c0830184611e50565b98975050505050505050565b60006080820190508181036000830152611f188187611d4c565b90508181036020830152611f2c8186611d4c565b9050611f3b6040830185611d91565b611f486060830184611da0565b95945050505050565b600080600080600060a08688031215611f6d57611f6c611a63565b5b600086013567ffffffffffffffff811115611f8b57611f8a611a68565b5b611f9788828901611c86565b955050602086013567ffffffffffffffff811115611fb857611fb7611a68565b5b611fc488828901611c86565b945050604086013567ffffffffffffffff811115611fe557611fe4611a68565b5b611ff188828901611c86565b935050606061200288828901611b19565b925050608061201388828901611ab6565b9150509295509295909350565b600061202b82611a6d565b9050919050565b61203b81612020565b82525050565b600061010082019050818103600083015261205c818b611d4c565b90508181036020830152612070818a611d4c565b905081810360408301526120848189611d4c565b90506120936060830188611e50565b6120a06080830187612032565b6120ad60a0830186611e50565b6120ba60c0830185611e50565b6120c760e0830184611e50565b9998505050505050505050565b6000806000606084860312156120ed576120ec611a63565b5b600084013567ffffffffffffffff81111561210b5761210a611a68565b5b61211786828701611c86565b935050602084013567ffffffffffffffff81111561213857612137611a68565b5b61214486828701611c86565b925050604061215586828701611ab6565b9150509250925092565b7f4e487b7100000000000000000000000000000000000000000000000000000000600052601160045260246000fd5b600061219982611af8565b91507fffffffffffffffffffffffffffffffffffffffffffffffffffffffffffffffff82036121cb576121ca61215f565b5b600182019050919050565b60006121e182611af8565b9150600082036121f4576121f361215f565b5b600182039050919050565b600081905092915050565b600061221582611cfd565b61221f81856121ff565b935061222f818560208601611d19565b80840191505092915050565b6000612247828461220a565b915081905092915050565b7f4e487b7100000000000000000000000000000000000000000000000000000000600052602260045260246000fd5b6000600282049050600182168061229957607f821691505b6020821081036122ac576122ab612252565b5b50919050565b60006122bd82611af8565b91506122c883611af8565b9250828210156122db576122da61215f565b5b828203905092915050565b600060408201905081810360008301526123008185611d4c565b905061230f6020830184611e50565b9392505050565b7f4e487b7100000000000000000000000000000000000000000000000000000000600052603260045260246000fd5b6000604082019050818103600083015261235f8185611d4c565b905081810360208301526123738184611d4c565b90509392505050565b6000612388828561220a565b9150612394828461220a565b91508190509392505050565b7f4e487b7100000000000000000000000000000000000000000000000000000000600052601260045260246000fd5b60006123da82611af8565b91506123e583611af8565b9250826123f5576123f46123a0565b5b828206905092915050565b600061240b82611af8565b915061241683611af8565b9250827fffffffffffffffffffffffffffffffffffffffffffffffffffffffffffffffff0382111561244b5761244a61215f565b5b828201905092915050565b600061246182611af8565b915061246c83611af8565b92508261247c5761247b6123a0565b5b828204905092915050565b6000819050919050565b600061249c82612487565b91506124a783612487565b9250817f7fffffffffffffffffffffffffffffffffffffffffffffffffffffffffffffff038313600083121516156124e2576124e161215f565b5b817f800000000000000000000000000000000000000000000000000000000000000003831260008312161561251a5761251961215f565b5b828201905092915050565b600061253082612487565b915061253b83612487565b9250827f7fffffffffffffffffffffffffffffffffffffffffffffffffffffffffffffff048211600084136000841316161561257a5761257961215f565b5b817f800000000000000000000000000000000000000000000000000000000000000005831260008412600084131616156125b7576125b661215f565b5b827f800000000000000000000000000000000000000000000000000000000000000005821260008413600084121616156125f4576125f361215f565b5b827f7fffffffffffffffffffffffffffffffffffffffffffffffffffffffffffffff05821260008412600084121616156126315761263061215f565b5b828202905092915050565b600061264782612487565b915061265283612487565b925082612662576126616123a0565b5b600160000383147f80000000000000000000000000000000000000000000000000000000000000008314161561269b5761269a61215f565b5b828205905092915050565b60006126b182612487565b91506126bc83612487565b9250827f8000000000000000000000000000000000000000000000000000000000000000018212600084121516156126f7576126f661215f565b5b827f7fffffffffffffffffffffffffffffffffffffffffffffffffffffffffffffff01821360008412161561272f5761272e61215f565b5b82820390509291505056fea26469706673582212207634e9b31f47eb2cc031c5d141fe17612fe23d509ec9c4b4707e605964e978ae64736f6c634300080d0033",
  "immutableReferences": {},
  "source": "// SPDX-License-Identifier: GPL-3.0\r\npragma solidity ^0.8.13;\r\nimport \"@openzeppelin/contracts/utils/Strings.sol\";\r\nimport \"@openzeppelin/contracts/access/Ownable.sol\";\r\nimport \"./BokkyPooBahsDateTimeLibrary.sol\";\r\n\r\ncontract ProductManagement is Ownable {\r\n\r\n    constructor(address initOwner) Ownable(initOwner) {\r\n        \r\n    }\r\n\r\n    event NewProduct(string name, uint price);\r\n    event NewSeller(string sellerId, string shopName);\r\n\r\n    struct Product {\r\n        string name;\r\n        string size;\r\n        string origin;\r\n        uint price;\r\n        uint year;\r\n        uint month;\r\n        uint date;\r\n    }\r\n\r\n    struct SellerData {\r\n        string sellerId;\r\n        string shopName;\r\n        bool isSeller;\r\n        address sellerAddr;\r\n    }\r\n\r\n    uint private snDigits = 8;\r\n    uint private modulus = 10 ** snDigits;\r\n    uint private order = 1;\r\n\r\n    Product[] public products;\r\n    \r\n    mapping(string => SellerData) public sellers; // sellerId => SellerData\r\n    mapping(address => bool) public isSellerAddr;\r\n\r\n    mapping(uint => uint) public serialToProduct; // serial num => Product Id\r\n    mapping (uint => uint) private productToSerial; // product Id => serial num\r\n\r\n    mapping(uint => address) public productToOwner; // any address: either manufacturer, seller, or consumer can be an owner\r\n    mapping(address => uint) public ownerProductCount;\r\n\r\n   \r\n    function _getCurrentTimestamp() private view returns (uint256) {\r\n        return block.timestamp;\r\n    } \r\n\r\n    function timestampToDate(uint timestamp) private pure returns (uint year, uint month, uint date) {\r\n        (year, month, date) = BokkyPooBahsDateTimeLibrary.timestampToDate(timestamp);\r\n        return (year, month, date);\r\n    }\r\n\r\n    function _genSerialNumber() private returns (uint, uint, uint, uint) {\r\n        uint productTime = _getCurrentTimestamp();\r\n        (uint year, uint month, uint date) = timestampToDate(productTime);\r\n        uint productOrder = order++;\r\n\r\n        string memory random = string.concat(Strings.toString(productTime), Strings.toString(productOrder));\r\n        return (1 + uint(keccak256(abi.encodePacked(random))) % modulus, year, month, date);\r\n    }\r\n\r\n    function makeProduct(string memory _name, string memory _size, string memory _origin, uint _price, address _newOwner) external {\r\n        (uint randomSN, uint year, uint month, uint date)= _genSerialNumber();\r\n\r\n        // check: make sure the serial number is not duplicated\r\n\r\n        products.push(Product(_name, _size, _origin, _price, year, month, date));\r\n\r\n        uint id = products.length - 1;\r\n        serialToProduct[randomSN]= id;\r\n        productToSerial[id] = randomSN;\r\n        productToOwner[id] = _newOwner;\r\n        ownerProductCount[_newOwner]++;\r\n        \r\n        emit NewProduct(_name, _price);\r\n    }\r\n\r\n    function getProductData(uint _productId) external view returns (string memory _name, string memory _size, string memory _origin, uint _price, address payable _owner, uint year, uint month, uint date) {\r\n        return (products[_productId].name, products[_productId].size, products[_productId].origin, products[_productId].price, payable(productToOwner[_productId]), year, month, date);\r\n    }\r\n\r\n    function getTotalProduct() public view returns (uint) {\r\n        return products.length;\r\n    }\r\n\r\n    function registerSeller(string memory _sellerId, string memory _shopName, address _sellerAddr) external {\r\n        require(!sellers[_sellerId].isSeller);\r\n\r\n        sellers[_sellerId].sellerId = _sellerId;\r\n        sellers[_sellerId].shopName = _shopName;\r\n        sellers[_sellerId].isSeller = true;\r\n        sellers[_sellerId].sellerAddr = _sellerAddr;\r\n        ownerProductCount[_sellerAddr] = 0;\r\n\r\n        isSellerAddr[_sellerAddr] = true;\r\n\r\n        emit NewSeller(_sellerId, _shopName);\r\n    }\r\n\r\n    function verifySeller(string memory _sellerId) external view returns (bool) {\r\n        return sellers[_sellerId].isSeller;\r\n    }\r\n\r\n    function incOwnerProductCount(address _productOwner) external { // increment\r\n        ownerProductCount[_productOwner]++;\r\n    }\r\n\r\n    function decOwnerProductCount(address _productOwner) external  {   // decrement\r\n        ownerProductCount[_productOwner]--;\r\n    }\r\n\r\n    function changeProductOwner(uint _productId, address _new) external {\r\n        address old = productToOwner[_productId];\r\n        productToOwner[_productId] = _new;\r\n        ownerProductCount[old]--;\r\n        ownerProductCount[_new]++;\r\n    }\r\n\r\n    function showSerialNumber (uint _productId) external view returns (uint) { // for manufacturer know only, since SN is not public for everyone to be seen, for testing purpose,\r\n        return productToSerial[_productId];\r\n    }\r\n\r\n    function verifyProduct(uint _productSN) public view returns (bool) {\r\n        return _productSN == productToSerial[serialToProduct[_productSN]];\r\n    }\r\n    \r\n    function getSellerData(string memory _sellerId) external view returns (string memory _shopName, bool _isSeller, address _sellerAddr) {\r\n        return (sellers[_sellerId].shopName, sellers[_sellerId].isSeller, sellers[_sellerId].sellerAddr);\r\n    }\r\n}",
  "sourcePath": "C:\\Users\\User\\Desktop\\fake-product-blockchain\\contracts\\product-management.sol",
  "compiler": {
    "name": "solc",
    "version": "0.8.13+commit.abaa5c0e.Emscripten.clang"
  },
  "schemaVersion": "3.4.16",
  "updatedAt": "2023-12-13T05:05:21.579Z",
  "networkType": "ethereum",
  "devdoc": {
    "errors": {
      "OwnableInvalidOwner(address)": [
        {
          "details": "The owner is not a valid owner account. (eg. `address(0)`)"
        }
      ],
      "OwnableUnauthorizedAccount(address)": [
        {
          "details": "The caller account is not authorized to perform an operation."
        }
      ]
    },
    "kind": "dev",
    "methods": {
      "owner()": {
        "details": "Returns the address of the current owner."
      },
      "renounceOwnership()": {
        "details": "Leaves the contract without owner. It will not be possible to call `onlyOwner` functions. Can only be called by the current owner. NOTE: Renouncing ownership will leave the contract without an owner, thereby disabling any functionality that is only available to the owner."
      },
      "transferOwnership(address)": {
        "details": "Transfers ownership of the contract to a new account (`newOwner`). Can only be called by the current owner."
      }
    },
    "version": 1
  },
  "userdoc": {
    "kind": "user",
    "methods": {},
    "version": 1
  }
}