{
  "contractName": "Seller",
  "abi": [
    {
      "inputs": [
        {
          "internalType": "address",
          "name": "_productManageAddress",
          "type": "address"
        }
      ],
      "stateMutability": "nonpayable",
      "type": "constructor"
    },
    {
      "anonymous": false,
      "inputs": [
        {
          "indexed": false,
          "internalType": "string",
          "name": "message",
          "type": "string"
        }
      ],
      "name": "log",
      "type": "event"
    },
    {
      "stateMutability": "payable",
      "type": "fallback",
      "payable": true
    },
    {
      "stateMutability": "payable",
      "type": "receive",
      "payable": true
    },
    {
      "inputs": [
        {
          "internalType": "string",
          "name": "_sellerId",
          "type": "string"
        }
      ],
      "name": "topUp",
      "outputs": [],
      "stateMutability": "payable",
      "type": "function",
      "payable": true
    },
    {
      "inputs": [
        {
          "internalType": "string",
          "name": "_sellerId",
          "type": "string"
        }
      ],
      "name": "checkBalance",
      "outputs": [
        {
          "internalType": "uint256",
          "name": "",
          "type": "uint256"
        }
      ],
      "stateMutability": "view",
      "type": "function",
      "constant": true
    },
    {
      "inputs": [
        {
          "internalType": "string",
          "name": "_from",
          "type": "string"
        },
        {
          "internalType": "uint256",
          "name": "_productId",
          "type": "uint256"
        }
      ],
      "name": "buyFromManufacturer",
      "outputs": [],
      "stateMutability": "payable",
      "type": "function",
      "payable": true
    }
  ],
  "bytecode": "0x60806040523480156200001157600080fd5b5060405162001487380380620014878339818101604052810190620000379190620000e8565b806000806101000a81548173ffffffffffffffffffffffffffffffffffffffff021916908373ffffffffffffffffffffffffffffffffffffffff160217905550506200011a565b600080fd5b600073ffffffffffffffffffffffffffffffffffffffff82169050919050565b6000620000b08262000083565b9050919050565b620000c281620000a3565b8114620000ce57600080fd5b50565b600081519050620000e281620000b7565b92915050565b6000602082840312156200010157620001006200007e565b5b60006200011184828501620000d1565b91505092915050565b61135d806200012a6000396000f3fe6080604052600436106100385760003560e01c806309cc5551146100ab57806312313b56146100c7578063973900a0146100e357610074565b36610074577f41304facd9323d75b11bcdd609cb38effffdb05710f7caf0e9b16c6d9d709f5060405161006a906109cf565b60405180910390a1005b7f41304facd9323d75b11bcdd609cb38effffdb05710f7caf0e9b16c6d9d709f506040516100a190610a3b565b60405180910390a1005b6100c560048036038101906100c09190610bb5565b610120565b005b6100e160048036038101906100dc9190610c34565b610384565b005b3480156100ef57600080fd5b5061010a60048036038101906101059190610bb5565b6107d8565b6040516101179190610c9f565b60405180910390f35b8060008054906101000a900473ffffffffffffffffffffffffffffffffffffffff1673ffffffffffffffffffffffffffffffffffffffff1663d5089067826040518263ffffffff1660e01b815260040161017a9190610d31565b602060405180830381865afa158015610197573d6000803e3d6000fd5b505050506040513d601f19601f820116820180604052508101906101bb9190610d8b565b6101c457600080fd5b600034116101d157600080fd5b60008060009054906101000a900473ffffffffffffffffffffffffffffffffffffffff1673ffffffffffffffffffffffffffffffffffffffff1663297aafd6846040518263ffffffff1660e01b815260040161022d9190610d31565b600060405180830381865afa15801561024a573d6000803e3d6000fd5b505050506040513d6000823e3d601f19601f820116820180604052508101906102739190610e86565b90915090508091505034600160008373ffffffffffffffffffffffffffffffffffffffff1673ffffffffffffffffffffffffffffffffffffffff16815260200190815260200160002060008282546102cb9190610f24565b9250508190555060003073ffffffffffffffffffffffffffffffffffffffff16346040516102f890610fab565b60006040518083038185875af1925050503d8060008114610335576040519150601f19603f3d011682016040523d82523d6000602084013e61033a565b606091505b505090508061037e576040517f08c379a00000000000000000000000000000000000000000000000000000000081526004016103759061100c565b60405180910390fd5b50505050565b8160008054906101000a900473ffffffffffffffffffffffffffffffffffffffff1673ffffffffffffffffffffffffffffffffffffffff1663d5089067826040518263ffffffff1660e01b81526004016103de9190610d31565b602060405180830381865afa1580156103fb573d6000803e3d6000fd5b505050506040513d601f19601f8201168201806040525081019061041f9190610d8b565b61042857600080fd5b60008060008060009054906101000a900473ffffffffffffffffffffffffffffffffffffffff1673ffffffffffffffffffffffffffffffffffffffff1663297aafd6876040518263ffffffff1660e01b81526004016104879190610d31565b600060405180830381865afa1580156104a4573d6000803e3d6000fd5b505050506040513d6000823e3d601f19601f820116820180604052508101906104cd9190610e86565b90915090508091505060008054906101000a900473ffffffffffffffffffffffffffffffffffffffff1673ffffffffffffffffffffffffffffffffffffffff1663d6d0be9f866040518263ffffffff1660e01b815260040161052f9190610c9f565b600060405180830381865afa15801561054c573d6000803e3d6000fd5b505050506040513d6000823e3d601f19601f82011682018060405250810190610575919061107f565b909192939495965090919293949550909192939450909150905050809350819450505082600160008373ffffffffffffffffffffffffffffffffffffffff1673ffffffffffffffffffffffffffffffffffffffff16815260200190815260200160002054101561061a576040517f08c379a0000000000000000000000000000000000000000000000000000000008152600401610611906111d5565b60405180910390fd5b670de0b6b3a76400008361062e91906111f5565b600160008373ffffffffffffffffffffffffffffffffffffffff1673ffffffffffffffffffffffffffffffffffffffff168152602001908152602001600020600082825461067c919061124f565b9250508190555060008273ffffffffffffffffffffffffffffffffffffffff16670de0b6b3a7640000856106b091906111f5565b6040516106bc90610fab565b60006040518083038185875af1925050503d80600081146106f9576040519150601f19603f3d011682016040523d82523d6000602084013e6106fe565b606091505b5050905080610742576040517f08c379a0000000000000000000000000000000000000000000000000000000008152600401610739906112cf565b60405180910390fd5b60008054906101000a900473ffffffffffffffffffffffffffffffffffffffff1673ffffffffffffffffffffffffffffffffffffffff16632346698b87846040518363ffffffff1660e01b815260040161079d9291906112fe565b600060405180830381600087803b1580156107b757600080fd5b505af11580156107cb573d6000803e3d6000fd5b5050505050505050505050565b60008160008054906101000a900473ffffffffffffffffffffffffffffffffffffffff1673ffffffffffffffffffffffffffffffffffffffff1663d5089067826040518263ffffffff1660e01b81526004016108349190610d31565b602060405180830381865afa158015610851573d6000803e3d6000fd5b505050506040513d601f19601f820116820180604052508101906108759190610d8b565b61087e57600080fd5b60008060009054906101000a900473ffffffffffffffffffffffffffffffffffffffff1673ffffffffffffffffffffffffffffffffffffffff1663297aafd6856040518263ffffffff1660e01b81526004016108da9190610d31565b600060405180830381865afa1580156108f7573d6000803e3d6000fd5b505050506040513d6000823e3d601f19601f820116820180604052508101906109209190610e86565b909150905080915050600160008273ffffffffffffffffffffffffffffffffffffffff1673ffffffffffffffffffffffffffffffffffffffff1681526020019081526020016000205492505050919050565b600082825260208201905092915050565b7f7265636569766500000000000000000000000000000000000000000000000000600082015250565b60006109b9600783610972565b91506109c482610983565b602082019050919050565b600060208201905081810360008301526109e8816109ac565b9050919050565b7f66616c6c6261636b000000000000000000000000000000000000000000000000600082015250565b6000610a25600883610972565b9150610a30826109ef565b602082019050919050565b60006020820190508181036000830152610a5481610a18565b9050919050565b6000604051905090565b600080fd5b600080fd5b600080fd5b600080fd5b6000601f19601f8301169050919050565b7f4e487b7100000000000000000000000000000000000000000000000000000000600052604160045260246000fd5b610ac282610a79565b810181811067ffffffffffffffff82111715610ae157610ae0610a8a565b5b80604052505050565b6000610af4610a5b565b9050610b008282610ab9565b919050565b600067ffffffffffffffff821115610b2057610b1f610a8a565b5b610b2982610a79565b9050602081019050919050565b82818337600083830152505050565b6000610b58610b5384610b05565b610aea565b905082815260208101848484011115610b7457610b73610a74565b5b610b7f848285610b36565b509392505050565b600082601f830112610b9c57610b9b610a6f565b5b8135610bac848260208601610b45565b91505092915050565b600060208284031215610bcb57610bca610a65565b5b600082013567ffffffffffffffff811115610be957610be8610a6a565b5b610bf584828501610b87565b91505092915050565b6000819050919050565b610c1181610bfe565b8114610c1c57600080fd5b50565b600081359050610c2e81610c08565b92915050565b60008060408385031215610c4b57610c4a610a65565b5b600083013567ffffffffffffffff811115610c6957610c68610a6a565b5b610c7585828601610b87565b9250506020610c8685828601610c1f565b9150509250929050565b610c9981610bfe565b82525050565b6000602082019050610cb46000830184610c90565b92915050565b600081519050919050565b60005b83811015610ce3578082015181840152602081019050610cc8565b83811115610cf2576000848401525b50505050565b6000610d0382610cba565b610d0d8185610972565b9350610d1d818560208601610cc5565b610d2681610a79565b840191505092915050565b60006020820190508181036000830152610d4b8184610cf8565b905092915050565b60008115159050919050565b610d6881610d53565b8114610d7357600080fd5b50565b600081519050610d8581610d5f565b92915050565b600060208284031215610da157610da0610a65565b5b6000610daf84828501610d76565b91505092915050565b6000610dcb610dc684610b05565b610aea565b905082815260208101848484011115610de757610de6610a74565b5b610df2848285610cc5565b509392505050565b600082601f830112610e0f57610e0e610a6f565b5b8151610e1f848260208601610db8565b91505092915050565b600073ffffffffffffffffffffffffffffffffffffffff82169050919050565b6000610e5382610e28565b9050919050565b610e6381610e48565b8114610e6e57600080fd5b50565b600081519050610e8081610e5a565b92915050565b600080600060608486031215610e9f57610e9e610a65565b5b600084015167ffffffffffffffff811115610ebd57610ebc610a6a565b5b610ec986828701610dfa565b9350506020610eda86828701610d76565b9250506040610eeb86828701610e71565b9150509250925092565b7f4e487b7100000000000000000000000000000000000000000000000000000000600052601160045260246000fd5b6000610f2f82610bfe565b9150610f3a83610bfe565b9250827fffffffffffffffffffffffffffffffffffffffffffffffffffffffffffffffff03821115610f6f57610f6e610ef5565b5b828201905092915050565b600081905092915050565b50565b6000610f95600083610f7a565b9150610fa082610f85565b600082019050919050565b6000610fb682610f88565b9150819050919050565b7f4661696c20746f20746f7020757020616d6f756e742e00000000000000000000600082015250565b6000610ff6601683610972565b915061100182610fc0565b602082019050919050565b6000602082019050818103600083015261102581610fe9565b9050919050565b60008151905061103b81610c08565b92915050565b600061104c82610e28565b9050919050565b61105c81611041565b811461106757600080fd5b50565b60008151905061107981611053565b92915050565b600080600080600080600080610100898b0312156110a05761109f610a65565b5b600089015167ffffffffffffffff8111156110be576110bd610a6a565b5b6110ca8b828c01610dfa565b985050602089015167ffffffffffffffff8111156110eb576110ea610a6a565b5b6110f78b828c01610dfa565b975050604089015167ffffffffffffffff81111561111857611117610a6a565b5b6111248b828c01610dfa565b96505060606111358b828c0161102c565b95505060806111468b828c0161106a565b94505060a06111578b828c0161102c565b93505060c06111688b828c0161102c565b92505060e06111798b828c0161102c565b9150509295985092959890939650565b7f42616c616e6365206e6f7420656e6f7567680000000000000000000000000000600082015250565b60006111bf601283610972565b91506111ca82611189565b602082019050919050565b600060208201905081810360008301526111ee816111b2565b9050919050565b600061120082610bfe565b915061120b83610bfe565b9250817fffffffffffffffffffffffffffffffffffffffffffffffffffffffffffffffff048311821515161561124457611243610ef5565b5b828202905092915050565b600061125a82610bfe565b915061126583610bfe565b92508282101561127857611277610ef5565b5b828203905092915050565b7f4661696c656420746f2073656e64204574686572000000000000000000000000600082015250565b60006112b9601483610972565b91506112c482611283565b602082019050919050565b600060208201905081810360008301526112e8816112ac565b9050919050565b6112f881610e48565b82525050565b60006040820190506113136000830185610c90565b61132060208301846112ef565b939250505056fea26469706673582212205b07cd765f34263a7b9676177fc2c84e1bed9a134722efadc5d81cf76398be8f64736f6c634300080d0033",
  "immutableReferences": {},
  "source": "// SPDX-License-Identifier: GPL-3.0\r\npragma solidity ^0.8.13;\r\n\r\ninterface IProductManagement_S {\r\n    function verifySeller (string memory _sellerId) external view returns (bool);\r\n    function changeProductOwner(uint _productId, address _new) external;\r\n    function getProductData(uint _productId) external view returns (string memory _name, string memory _size, string memory _origin, uint _price, address payable _owner, uint year, uint month, uint date);\r\n    function getSellerData(string memory _sellerId) external view returns (string memory _shopName, bool _isSeller, address _sellerAddr);\r\n}\r\n\r\ncontract Seller {\r\n\r\n    event log(string message);\r\n\r\n    IProductManagement_S productManageContract;\r\n    \r\n    mapping (address => uint) private balance; // mapping to keep track of each seller topped up balance\r\n\r\n    constructor (address _productManageAddress) {\r\n        productManageContract = IProductManagement_S(_productManageAddress);\r\n    }\r\n\r\n    modifier onlySeller(string memory _sellerId) {\r\n        require(productManageContract.verifySeller(_sellerId));\r\n        _;\r\n    }\r\n\r\n    fallback() external payable {\r\n        emit log(\"fallback\");\r\n    }\r\n\r\n    receive() external payable { // msg.sender dari receive function adalah contract ini sendiri\r\n        emit log(\"receive\");\r\n    }\r\n\r\n    function topUp (string memory _sellerId) public payable onlySeller(_sellerId) {\r\n        require(msg.value > 0 ether);\r\n\r\n        address sellerAddr;\r\n        (,, sellerAddr) = productManageContract.getSellerData(_sellerId);\r\n        balance[sellerAddr] += msg.value; // msg.value is in wei\r\n\r\n        (bool sent,) = payable(address(this)).call{value: msg.value}(\"\");\r\n        require(sent, \"Fail to top up amount.\");\r\n        \r\n    }\r\n\r\n    function checkBalance (string memory _sellerId) public view onlySeller(_sellerId) returns (uint) {\r\n        address sellerAddr;\r\n        (,, sellerAddr) = productManageContract.getSellerData(_sellerId);\r\n        return balance[sellerAddr];\r\n    }\r\n\r\n    function buyFromManufacturer(string memory _from, uint _productId) public payable onlySeller(_from) { // _from is seller id\r\n        uint price;\r\n        address payable _to; // product owner that we want to pay eth to\r\n        address sellerAddr;\r\n\r\n        (,, sellerAddr) = productManageContract.getSellerData(_from);\r\n\r\n        (,,, price, _to,,,) = productManageContract.getProductData(_productId);\r\n\r\n        require(balance[sellerAddr] >= price, \"Balance not enough\");\r\n\r\n        balance[sellerAddr] -= price * 10**18; // must ensure the unit is in wei\r\n        (bool sent, ) = _to.call{value: price * 10**18 }(\"\");\r\n        require(sent, \"Failed to send Ether\");\r\n        \r\n        productManageContract.changeProductOwner(_productId, sellerAddr);\r\n    }\r\n\r\n    // function setNewPrice(uint _productId, uint _price) internal onlySeller {\r\n    //     IProductManagement.products[_productId].price = _price;\r\n    // }\r\n    \r\n}",
  "sourcePath": "C:\\Users\\User\\Desktop\\fake-product-identification-blockchain\\contracts\\seller.sol",
  "compiler": {
    "name": "solc",
    "version": "0.8.13+commit.abaa5c0e.Emscripten.clang"
  },
  "schemaVersion": "3.4.16",
  "updatedAt": "2023-12-26T03:48:06.086Z",
  "networkType": "ethereum",
  "devdoc": {
    "kind": "dev",
    "methods": {},
    "version": 1
  },
  "userdoc": {
    "kind": "user",
    "methods": {},
    "version": 1
  }
}